{
  "_format": "hh-sol-artifact-1",
  "contractName": "FXEngine",
  "sourceName": "contracts/FXEngine.sol",
  "abi": [
    {
      "inputs": [],
      "stateMutability": "nonpayable",
      "type": "constructor"
    },
    {
      "anonymous": false,
      "inputs": [
        {
          "indexed": true,
          "internalType": "address",
          "name": "token",
          "type": "address"
        },
        {
          "indexed": true,
          "internalType": "address",
          "name": "feed",
          "type": "address"
        }
      ],
      "name": "PriceFeedUpdated",
      "type": "event"
    },
    {
      "inputs": [
        {
          "internalType": "address",
          "name": "tokenIn",
          "type": "address"
        },
        {
          "internalType": "address",
          "name": "tokenOut",
          "type": "address"
        },
        {
          "internalType": "uint256",
          "name": "amountIn",
          "type": "uint256"
        }
      ],
      "name": "convert",
      "outputs": [
        {
          "internalType": "uint256",
          "name": "amountOut",
          "type": "uint256"
        }
      ],
      "stateMutability": "view",
      "type": "function"
    },
    {
      "inputs": [
        {
          "internalType": "address",
          "name": "token",
          "type": "address"
        }
      ],
      "name": "getPrice",
      "outputs": [
        {
          "internalType": "uint256",
          "name": "",
          "type": "uint256"
        }
      ],
      "stateMutability": "view",
      "type": "function"
    },
    {
      "inputs": [],
      "name": "owner",
      "outputs": [
        {
          "internalType": "address",
          "name": "",
          "type": "address"
        }
      ],
      "stateMutability": "view",
      "type": "function"
    },
    {
      "inputs": [
        {
          "internalType": "address",
          "name": "",
          "type": "address"
        }
      ],
      "name": "priceFeeds",
      "outputs": [
        {
          "internalType": "address",
          "name": "",
          "type": "address"
        }
      ],
      "stateMutability": "view",
      "type": "function"
    },
    {
      "inputs": [
        {
          "internalType": "address",
          "name": "token",
          "type": "address"
        },
        {
          "internalType": "address",
          "name": "feed",
          "type": "address"
        }
      ],
      "name": "setPriceFeed",
      "outputs": [],
      "stateMutability": "nonpayable",
      "type": "function"
    }
  ],
  "bytecode": "0x608060405234801561001057600080fd5b50336000806101000a81548173ffffffffffffffffffffffffffffffffffffffff021916908373ffffffffffffffffffffffffffffffffffffffff160217905550610e65806100606000396000f3fe608060405234801561001057600080fd5b50600436106100575760003560e01c8063248391ff1461005c57806341976e091461008c57806376e11286146100bc5780638da5cb5b146100d85780639dcb511a146100f6575b600080fd5b61007660048036038101906100719190610735565b610126565b6040516100839190610797565b60405180910390f35b6100a660048036038101906100a191906107b2565b6101d2565b6040516100b39190610797565b60405180910390f35b6100d660048036038101906100d191906107df565b6103fd565b005b6100e0610645565b6040516100ed919061082e565b60405180910390f35b610110600480360381019061010b91906107b2565b610669565b60405161011d919061082e565b60405180910390f35b600080821161016a576040517f08c379a0000000000000000000000000000000000000000000000000000000008152600401610161906108a6565b60405180910390fd5b6000610175856101d2565b90506000610182856101d2565b90506000670de0b6b3a7640000838661019b91906108f5565b6101a59190610966565b905081670de0b6b3a7640000826101bc91906108f5565b6101c69190610966565b93505050509392505050565b600080600160008473ffffffffffffffffffffffffffffffffffffffff1673ffffffffffffffffffffffffffffffffffffffff16815260200190815260200160002060009054906101000a900473ffffffffffffffffffffffffffffffffffffffff169050600073ffffffffffffffffffffffffffffffffffffffff168173ffffffffffffffffffffffffffffffffffffffff16036102a6576040517f08c379a000000000000000000000000000000000000000000000000000000000815260040161029d906109e3565b60405180910390fd5b60008173ffffffffffffffffffffffffffffffffffffffff166350d25bcd6040518163ffffffff1660e01b8152600401602060405180830381865afa1580156102f3573d6000803e3d6000fd5b505050506040513d601f19601f820116820180604052508101906103179190610a39565b90506000811361035c576040517f08c379a000000000000000000000000000000000000000000000000000000000815260040161035390610ab2565b60405180910390fd5b60008273ffffffffffffffffffffffffffffffffffffffff1663313ce5676040518163ffffffff1660e01b8152600401602060405180830381865afa1580156103a9573d6000803e3d6000fd5b505050506040513d601f19601f820116820180604052508101906103cd9190610b0b565b90508060126103dc9190610b38565b600a6103e89190610ca0565b826103f391906108f5565b9350505050919050565b60008054906101000a900473ffffffffffffffffffffffffffffffffffffffff1673ffffffffffffffffffffffffffffffffffffffff163373ffffffffffffffffffffffffffffffffffffffff161461048b576040517f08c379a000000000000000000000000000000000000000000000000000000000815260040161048290610d37565b60405180910390fd5b600073ffffffffffffffffffffffffffffffffffffffff168273ffffffffffffffffffffffffffffffffffffffff16036104fa576040517f08c379a00000000000000000000000000000000000000000000000000000000081526004016104f190610da3565b60405180910390fd5b600073ffffffffffffffffffffffffffffffffffffffff168173ffffffffffffffffffffffffffffffffffffffff1603610569576040517f08c379a000000000000000000000000000000000000000000000000000000000815260040161056090610e0f565b60405180910390fd5b80600160008473ffffffffffffffffffffffffffffffffffffffff1673ffffffffffffffffffffffffffffffffffffffff16815260200190815260200160002060006101000a81548173ffffffffffffffffffffffffffffffffffffffff021916908373ffffffffffffffffffffffffffffffffffffffff1602179055508073ffffffffffffffffffffffffffffffffffffffff168273ffffffffffffffffffffffffffffffffffffffff167fa8abe0398416476db5b05737cd4da3b3cbde5012d978a6a6c3fd49d32175353660405160405180910390a35050565b60008054906101000a900473ffffffffffffffffffffffffffffffffffffffff1681565b60016020528060005260406000206000915054906101000a900473ffffffffffffffffffffffffffffffffffffffff1681565b600080fd5b600073ffffffffffffffffffffffffffffffffffffffff82169050919050565b60006106cc826106a1565b9050919050565b6106dc816106c1565b81146106e757600080fd5b50565b6000813590506106f9816106d3565b92915050565b6000819050919050565b610712816106ff565b811461071d57600080fd5b50565b60008135905061072f81610709565b92915050565b60008060006060848603121561074e5761074d61069c565b5b600061075c868287016106ea565b935050602061076d868287016106ea565b925050604061077e86828701610720565b9150509250925092565b610791816106ff565b82525050565b60006020820190506107ac6000830184610788565b92915050565b6000602082840312156107c8576107c761069c565b5b60006107d6848285016106ea565b91505092915050565b600080604083850312156107f6576107f561069c565b5b6000610804858286016106ea565b9250506020610815858286016106ea565b9150509250929050565b610828816106c1565b82525050565b6000602082019050610843600083018461081f565b92915050565b600082825260208201905092915050565b7f5a65726f20616d6f756e74000000000000000000000000000000000000000000600082015250565b6000610890600b83610849565b915061089b8261085a565b602082019050919050565b600060208201905081810360008301526108bf81610883565b9050919050565b7f4e487b7100000000000000000000000000000000000000000000000000000000600052601160045260246000fd5b6000610900826106ff565b915061090b836106ff565b9250828202610919816106ff565b915082820484148315176109305761092f6108c6565b5b5092915050565b7f4e487b7100000000000000000000000000000000000000000000000000000000600052601260045260246000fd5b6000610971826106ff565b915061097c836106ff565b92508261098c5761098b610937565b5b828204905092915050565b7f46656564206e6f74207365740000000000000000000000000000000000000000600082015250565b60006109cd600c83610849565b91506109d882610997565b602082019050919050565b600060208201905081810360008301526109fc816109c0565b9050919050565b6000819050919050565b610a1681610a03565b8114610a2157600080fd5b50565b600081519050610a3381610a0d565b92915050565b600060208284031215610a4f57610a4e61069c565b5b6000610a5d84828501610a24565b91505092915050565b7f496e76616c6964206f7261636c6520616e737765720000000000000000000000600082015250565b6000610a9c601583610849565b9150610aa782610a66565b602082019050919050565b60006020820190508181036000830152610acb81610a8f565b9050919050565b600060ff82169050919050565b610ae881610ad2565b8114610af357600080fd5b50565b600081519050610b0581610adf565b92915050565b600060208284031215610b2157610b2061069c565b5b6000610b2f84828501610af6565b91505092915050565b6000610b4382610ad2565b9150610b4e83610ad2565b9250828203905060ff811115610b6757610b666108c6565b5b92915050565b60008160011c9050919050565b6000808291508390505b6001851115610bc457808604811115610ba057610b9f6108c6565b5b6001851615610baf5780820291505b8081029050610bbd85610b6d565b9450610b84565b94509492505050565b600082610bdd5760019050610c99565b81610beb5760009050610c99565b8160018114610c015760028114610c0b57610c3a565b6001915050610c99565b60ff841115610c1d57610c1c6108c6565b5b8360020a915084821115610c3457610c336108c6565b5b50610c99565b5060208310610133831016604e8410600b8410161715610c6f5782820a905083811115610c6a57610c696108c6565b5b610c99565b610c7c8484846001610b7a565b92509050818404811115610c9357610c926108c6565b5b81810290505b9392505050565b6000610cab826106ff565b9150610cb683610ad2565b9250610ce37fffffffffffffffffffffffffffffffffffffffffffffffffffffffffffffffff8484610bcd565b905092915050565b7f4e6f74206f776e65720000000000000000000000000000000000000000000000600082015250565b6000610d21600983610849565b9150610d2c82610ceb565b602082019050919050565b60006020820190508181036000830152610d5081610d14565b9050919050565b7f496e76616c696420746f6b656e00000000000000000000000000000000000000600082015250565b6000610d8d600d83610849565b9150610d9882610d57565b602082019050919050565b60006020820190508181036000830152610dbc81610d80565b9050919050565b7f496e76616c696420666565640000000000000000000000000000000000000000600082015250565b6000610df9600c83610849565b9150610e0482610dc3565b602082019050919050565b60006020820190508181036000830152610e2881610dec565b905091905056fea264697066735822122075477c64e10943d93554a557c81a5d16804026c110492e40281311594225c1a464736f6c63430008140033",
  "linkReferences": {},
  "deployedLinkReferences": {}
}