{
  "_format": "hh-sol-artifact-1",
  "contractName": "ReputationScore",
  "sourceName": "contracts/ReputationScore.sol",
  "abi": [
    {
      "inputs": [],
      "stateMutability": "nonpayable",
      "type": "constructor"
    },
    {
      "anonymous": false,
      "inputs": [
        {
          "indexed": true,
          "internalType": "address",
          "name": "contractAddress",
          "type": "address"
        },
        {
          "indexed": false,
          "internalType": "bool",
          "name": "status",
          "type": "bool"
        }
      ],
      "name": "Authorized",
      "type": "event"
    },
    {
      "anonymous": false,
      "inputs": [
        {
          "indexed": true,
          "internalType": "address",
          "name": "user",
          "type": "address"
        },
        {
          "indexed": false,
          "internalType": "uint256",
          "name": "newScore",
          "type": "uint256"
        }
      ],
      "name": "ScoreDecreased",
      "type": "event"
    },
    {
      "anonymous": false,
      "inputs": [
        {
          "indexed": true,
          "internalType": "address",
          "name": "user",
          "type": "address"
        },
        {
          "indexed": false,
          "internalType": "uint256",
          "name": "newScore",
          "type": "uint256"
        }
      ],
      "name": "ScoreIncreased",
      "type": "event"
    },
    {
      "inputs": [
        {
          "internalType": "address",
          "name": "",
          "type": "address"
        }
      ],
      "name": "authorized",
      "outputs": [
        {
          "internalType": "bool",
          "name": "",
          "type": "bool"
        }
      ],
      "stateMutability": "view",
      "type": "function"
    },
    {
      "inputs": [
        {
          "internalType": "address",
          "name": "user",
          "type": "address"
        },
        {
          "internalType": "uint256",
          "name": "amount",
          "type": "uint256"
        }
      ],
      "name": "decreaseScore",
      "outputs": [],
      "stateMutability": "nonpayable",
      "type": "function"
    },
    {
      "inputs": [
        {
          "internalType": "address",
          "name": "user",
          "type": "address"
        }
      ],
      "name": "getScore",
      "outputs": [
        {
          "internalType": "uint256",
          "name": "",
          "type": "uint256"
        }
      ],
      "stateMutability": "view",
      "type": "function"
    },
    {
      "inputs": [
        {
          "internalType": "address",
          "name": "user",
          "type": "address"
        },
        {
          "internalType": "uint256",
          "name": "amount",
          "type": "uint256"
        }
      ],
      "name": "increaseScore",
      "outputs": [],
      "stateMutability": "nonpayable",
      "type": "function"
    },
    {
      "inputs": [],
      "name": "owner",
      "outputs": [
        {
          "internalType": "address",
          "name": "",
          "type": "address"
        }
      ],
      "stateMutability": "view",
      "type": "function"
    },
    {
      "inputs": [
        {
          "internalType": "address",
          "name": "caller",
          "type": "address"
        },
        {
          "internalType": "bool",
          "name": "status",
          "type": "bool"
        }
      ],
      "name": "setAuthorized",
      "outputs": [],
      "stateMutability": "nonpayable",
      "type": "function"
    }
  ],
  "bytecode": "0x608060405234801561001057600080fd5b5033600260006101000a81548173ffffffffffffffffffffffffffffffffffffffff021916908373ffffffffffffffffffffffffffffffffffffffff160217905550610967806100616000396000f3fe608060405234801561001057600080fd5b50600436106100625760003560e01c8063711bf9b2146100675780638da5cb5b14610083578063b46b1276146100a1578063b9181611146100bd578063d3ec35b7146100ed578063d47875d014610109575b600080fd5b610081600480360381019061007c9190610650565b610139565b005b61008b610272565b604051610098919061069f565b60405180910390f35b6100bb60048036038101906100b691906106f0565b610298565b005b6100d760048036038101906100d29190610730565b6103e7565b6040516100e4919061076c565b60405180910390f35b610107600480360381019061010291906106f0565b610407565b005b610123600480360381019061011e9190610730565b610557565b6040516101309190610796565b60405180910390f35b600260009054906101000a900473ffffffffffffffffffffffffffffffffffffffff1673ffffffffffffffffffffffffffffffffffffffff163373ffffffffffffffffffffffffffffffffffffffff16146101c9576040517f08c379a00000000000000000000000000000000000000000000000000000000081526004016101c09061080e565b60405180910390fd5b80600160008473ffffffffffffffffffffffffffffffffffffffff1673ffffffffffffffffffffffffffffffffffffffff16815260200190815260200160002060006101000a81548160ff0219169083151502179055508173ffffffffffffffffffffffffffffffffffffffff167f4c0079b9bcd37cd5d29a13938effd97c881798cbc6bd52a3026a29d94b27d1bf82604051610266919061076c565b60405180910390a25050565b600260009054906101000a900473ffffffffffffffffffffffffffffffffffffffff1681565b600160003373ffffffffffffffffffffffffffffffffffffffff1673ffffffffffffffffffffffffffffffffffffffff16815260200190815260200160002060009054906101000a900460ff16610324576040517f08c379a000000000000000000000000000000000000000000000000000000000815260040161031b9061087a565b60405180910390fd5b600061032f83610557565b9050600082821161034157600061034e565b828261034d91906108c9565b5b9050806000808673ffffffffffffffffffffffffffffffffffffffff1673ffffffffffffffffffffffffffffffffffffffff168152602001908152602001600020819055508373ffffffffffffffffffffffffffffffffffffffff167fe0f78209bd870d73ceb87db4fae001fdbbd9d8854fcb23ff048701092f3b413c826040516103d99190610796565b60405180910390a250505050565b60016020528060005260406000206000915054906101000a900460ff1681565b600160003373ffffffffffffffffffffffffffffffffffffffff1673ffffffffffffffffffffffffffffffffffffffff16815260200190815260200160002060009054906101000a900460ff16610493576040517f08c379a000000000000000000000000000000000000000000000000000000000815260040161048a9061087a565b60405180910390fd5b600061049e83610557565b9050600082826104ae91906108fd565b90506103e88111156104c0576103e890505b806000808673ffffffffffffffffffffffffffffffffffffffff1673ffffffffffffffffffffffffffffffffffffffff168152602001908152602001600020819055508373ffffffffffffffffffffffffffffffffffffffff167f602f8a8cfe9343f509fa49cc6750843ea138244c517cbf727b4be40356ebd9d8826040516105499190610796565b60405180910390a250505050565b6000806000808473ffffffffffffffffffffffffffffffffffffffff1673ffffffffffffffffffffffffffffffffffffffff168152602001908152602001600020549050600081146105a957806105ad565b6102585b915050919050565b600080fd5b600073ffffffffffffffffffffffffffffffffffffffff82169050919050565b60006105e5826105ba565b9050919050565b6105f5816105da565b811461060057600080fd5b50565b600081359050610612816105ec565b92915050565b60008115159050919050565b61062d81610618565b811461063857600080fd5b50565b60008135905061064a81610624565b92915050565b60008060408385031215610667576106666105b5565b5b600061067585828601610603565b92505060206106868582860161063b565b9150509250929050565b610699816105da565b82525050565b60006020820190506106b46000830184610690565b92915050565b6000819050919050565b6106cd816106ba565b81146106d857600080fd5b50565b6000813590506106ea816106c4565b92915050565b60008060408385031215610707576107066105b5565b5b600061071585828601610603565b9250506020610726858286016106db565b9150509250929050565b600060208284031215610746576107456105b5565b5b600061075484828501610603565b91505092915050565b61076681610618565b82525050565b6000602082019050610781600083018461075d565b92915050565b610790816106ba565b82525050565b60006020820190506107ab6000830184610787565b92915050565b600082825260208201905092915050565b7f4e6f74206f776e65720000000000000000000000000000000000000000000000600082015250565b60006107f86009836107b1565b9150610803826107c2565b602082019050919050565b60006020820190508181036000830152610827816107eb565b9050919050565b7f4e6f7420617574686f72697a6564000000000000000000000000000000000000600082015250565b6000610864600e836107b1565b915061086f8261082e565b602082019050919050565b6000602082019050818103600083015261089381610857565b9050919050565b7f4e487b7100000000000000000000000000000000000000000000000000000000600052601160045260246000fd5b60006108d4826106ba565b91506108df836106ba565b92508282039050818111156108f7576108f661089a565b5b92915050565b6000610908826106ba565b9150610913836106ba565b925082820190508082111561092b5761092a61089a565b5b9291505056fea26469706673582212200f761be172dbad75f5f51a4402a8425b9005459452a3df216fda38d657fa3b1864736f6c63430008140033",
  "linkReferences": {},
  "deployedLinkReferences": {}
}